{
  "_format": "hh-sol-artifact-1",
  "contractName": "BlockSnapNFT",
  "sourceName": "BlockSnapNFT.sol",
  "abi": [
    {
      "inputs": [],
      "stateMutability": "nonpayable",
      "type": "constructor"
    },
    {
      "inputs": [
        {
          "internalType": "address",
          "name": "sender",
          "type": "address"
        },
        {
          "internalType": "uint256",
          "name": "tokenId",
          "type": "uint256"
        },
        {
          "internalType": "address",
          "name": "owner",
          "type": "address"
        }
      ],
      "name": "ERC721IncorrectOwner",
      "type": "error"
    },
    {
      "inputs": [
        {
          "internalType": "address",
          "name": "operator",
          "type": "address"
        },
        {
          "internalType": "uint256",
          "name": "tokenId",
          "type": "uint256"
        }
      ],
      "name": "ERC721InsufficientApproval",
      "type": "error"
    },
    {
      "inputs": [
        {
          "internalType": "address",
          "name": "approver",
          "type": "address"
        }
      ],
      "name": "ERC721InvalidApprover",
      "type": "error"
    },
    {
      "inputs": [
        {
          "internalType": "address",
          "name": "operator",
          "type": "address"
        }
      ],
      "name": "ERC721InvalidOperator",
      "type": "error"
    },
    {
      "inputs": [
        {
          "internalType": "address",
          "name": "owner",
          "type": "address"
        }
      ],
      "name": "ERC721InvalidOwner",
      "type": "error"
    },
    {
      "inputs": [
        {
          "internalType": "address",
          "name": "receiver",
          "type": "address"
        }
      ],
      "name": "ERC721InvalidReceiver",
      "type": "error"
    },
    {
      "inputs": [
        {
          "internalType": "address",
          "name": "sender",
          "type": "address"
        }
      ],
      "name": "ERC721InvalidSender",
      "type": "error"
    },
    {
      "inputs": [
        {
          "internalType": "uint256",
          "name": "tokenId",
          "type": "uint256"
        }
      ],
      "name": "ERC721NonexistentToken",
      "type": "error"
    },
    {
      "inputs": [
        {
          "internalType": "address",
          "name": "owner",
          "type": "address"
        }
      ],
      "name": "OwnableInvalidOwner",
      "type": "error"
    },
    {
      "inputs": [
        {
          "internalType": "address",
          "name": "account",
          "type": "address"
        }
      ],
      "name": "OwnableUnauthorizedAccount",
      "type": "error"
    },
    {
      "anonymous": false,
      "inputs": [
        {
          "indexed": true,
          "internalType": "address",
          "name": "owner",
          "type": "address"
        },
        {
          "indexed": true,
          "internalType": "address",
          "name": "approved",
          "type": "address"
        },
        {
          "indexed": true,
          "internalType": "uint256",
          "name": "tokenId",
          "type": "uint256"
        }
      ],
      "name": "Approval",
      "type": "event"
    },
    {
      "anonymous": false,
      "inputs": [
        {
          "indexed": true,
          "internalType": "address",
          "name": "owner",
          "type": "address"
        },
        {
          "indexed": true,
          "internalType": "address",
          "name": "operator",
          "type": "address"
        },
        {
          "indexed": false,
          "internalType": "bool",
          "name": "approved",
          "type": "bool"
        }
      ],
      "name": "ApprovalForAll",
      "type": "event"
    },
    {
      "anonymous": false,
      "inputs": [
        {
          "indexed": false,
          "internalType": "uint256",
          "name": "_fromTokenId",
          "type": "uint256"
        },
        {
          "indexed": false,
          "internalType": "uint256",
          "name": "_toTokenId",
          "type": "uint256"
        }
      ],
      "name": "BatchMetadataUpdate",
      "type": "event"
    },
    {
      "anonymous": false,
      "inputs": [
        {
          "indexed": false,
          "internalType": "uint256",
          "name": "_tokenId",
          "type": "uint256"
        }
      ],
      "name": "MetadataUpdate",
      "type": "event"
    },
    {
      "anonymous": false,
      "inputs": [
        {
          "indexed": true,
          "internalType": "address",
          "name": "previousOwner",
          "type": "address"
        },
        {
          "indexed": true,
          "internalType": "address",
          "name": "newOwner",
          "type": "address"
        }
      ],
      "name": "OwnershipTransferred",
      "type": "event"
    },
    {
      "anonymous": false,
      "inputs": [
        {
          "indexed": true,
          "internalType": "uint256",
          "name": "tokenId",
          "type": "uint256"
        },
        {
          "indexed": true,
          "internalType": "address",
          "name": "owner",
          "type": "address"
        },
        {
          "indexed": false,
          "internalType": "string",
          "name": "ipfsCID",
          "type": "string"
        },
        {
          "indexed": false,
          "internalType": "string",
          "name": "metadataURI",
          "type": "string"
        }
      ],
      "name": "PhotoMinted",
      "type": "event"
    },
    {
      "anonymous": false,
      "inputs": [
        {
          "indexed": true,
          "internalType": "address",
          "name": "from",
          "type": "address"
        },
        {
          "indexed": true,
          "internalType": "address",
          "name": "to",
          "type": "address"
        },
        {
          "indexed": true,
          "internalType": "uint256",
          "name": "tokenId",
          "type": "uint256"
        }
      ],
      "name": "Transfer",
      "type": "event"
    },
    {
      "anonymous": false,
      "inputs": [
        {
          "indexed": true,
          "internalType": "uint256",
          "name": "sessionId",
          "type": "uint256"
        },
        {
          "indexed": false,
          "internalType": "uint256",
          "name": "sequenceNumber",
          "type": "uint256"
        },
        {
          "indexed": false,
          "internalType": "string",
          "name": "videoCID",
          "type": "string"
        }
      ],
      "name": "VideoChunkAdded",
      "type": "event"
    },
    {
      "anonymous": false,
      "inputs": [
        {
          "indexed": true,
          "internalType": "uint256",
          "name": "sessionId",
          "type": "uint256"
        },
        {
          "indexed": false,
          "internalType": "uint256",
          "name": "totalChunks",
          "type": "uint256"
        }
      ],
      "name": "VideoSessionEnded",
      "type": "event"
    },
    {
      "anonymous": false,
      "inputs": [
        {
          "indexed": true,
          "internalType": "uint256",
          "name": "sessionId",
          "type": "uint256"
        },
        {
          "indexed": true,
          "internalType": "address",
          "name": "owner",
          "type": "address"
        }
      ],
      "name": "VideoSessionStarted",
      "type": "event"
    },
    {
      "inputs": [
        {
          "internalType": "uint256",
          "name": "sessionId",
          "type": "uint256"
        },
        {
          "internalType": "uint256",
          "name": "sequenceNumber",
          "type": "uint256"
        },
        {
          "internalType": "string",
          "name": "videoCID",
          "type": "string"
        },
        {
          "internalType": "string",
          "name": "metadataCID",
          "type": "string"
        }
      ],
      "name": "addVideoChunk",
      "outputs": [],
      "stateMutability": "nonpayable",
      "type": "function"
    },
    {
      "inputs": [
        {
          "internalType": "address",
          "name": "to",
          "type": "address"
        },
        {
          "internalType": "uint256",
          "name": "tokenId",
          "type": "uint256"
        }
      ],
      "name": "approve",
      "outputs": [],
      "stateMutability": "nonpayable",
      "type": "function"
    },
    {
      "inputs": [
        {
          "internalType": "address",
          "name": "owner",
          "type": "address"
        }
      ],
      "name": "balanceOf",
      "outputs": [
        {
          "internalType": "uint256",
          "name": "",
          "type": "uint256"
        }
      ],
      "stateMutability": "view",
      "type": "function"
    },
    {
      "inputs": [
        {
          "internalType": "uint256",
          "name": "tokenId",
          "type": "uint256"
        }
      ],
      "name": "burn",
      "outputs": [],
      "stateMutability": "nonpayable",
      "type": "function"
    },
    {
      "inputs": [
        {
          "internalType": "uint256",
          "name": "sessionId",
          "type": "uint256"
        }
      ],
      "name": "endVideoSession",
      "outputs": [],
      "stateMutability": "nonpayable",
      "type": "function"
    },
    {
      "inputs": [
        {
          "internalType": "uint256",
          "name": "tokenId",
          "type": "uint256"
        }
      ],
      "name": "getApproved",
      "outputs": [
        {
          "internalType": "address",
          "name": "",
          "type": "address"
        }
      ],
      "stateMutability": "view",
      "type": "function"
    },
    {
      "inputs": [
        {
          "internalType": "uint256",
          "name": "tokenId",
          "type": "uint256"
        }
      ],
      "name": "getImageCID",
      "outputs": [
        {
          "internalType": "string",
          "name": "",
          "type": "string"
        }
      ],
      "stateMutability": "view",
      "type": "function"
    },
    {
      "inputs": [],
      "name": "getNextTokenId",
      "outputs": [
        {
          "internalType": "uint256",
          "name": "",
          "type": "uint256"
        }
      ],
      "stateMutability": "view",
      "type": "function"
    },
    {
      "inputs": [
        {
          "internalType": "uint256",
          "name": "sessionId",
          "type": "uint256"
        }
      ],
      "name": "getSessionChunks",
      "outputs": [
        {
          "components": [
            {
              "internalType": "uint256",
              "name": "sessionId",
              "type": "uint256"
            },
            {
              "internalType": "uint256",
              "name": "sequenceNumber",
              "type": "uint256"
            },
            {
              "internalType": "string",
              "name": "videoCID",
              "type": "string"
            },
            {
              "internalType": "string",
              "name": "metadataCID",
              "type": "string"
            },
            {
              "internalType": "uint256",
              "name": "timestamp",
              "type": "uint256"
            }
          ],
          "internalType": "struct BlockSnapNFT.VideoChunk[]",
          "name": "",
          "type": "tuple[]"
        }
      ],
      "stateMutability": "view",
      "type": "function"
    },
    {
      "inputs": [
        {
          "internalType": "address",
          "name": "owner",
          "type": "address"
        },
        {
          "internalType": "address",
          "name": "operator",
          "type": "address"
        }
      ],
      "name": "isApprovedForAll",
      "outputs": [
        {
          "internalType": "bool",
          "name": "",
          "type": "bool"
        }
      ],
      "stateMutability": "view",
      "type": "function"
    },
    {
      "inputs": [
        {
          "internalType": "uint256",
          "name": "sessionId",
          "type": "uint256"
        }
      ],
      "name": "isSessionActive",
      "outputs": [
        {
          "internalType": "bool",
          "name": "",
          "type": "bool"
        }
      ],
      "stateMutability": "view",
      "type": "function"
    },
    {
      "inputs": [
        {
          "internalType": "address",
          "name": "to",
          "type": "address"
        },
        {
          "internalType": "string",
          "name": "imageCID",
          "type": "string"
        },
        {
          "internalType": "string",
          "name": "metadataURI",
          "type": "string"
        }
      ],
      "name": "mintPhoto",
      "outputs": [
        {
          "internalType": "uint256",
          "name": "",
          "type": "uint256"
        }
      ],
      "stateMutability": "nonpayable",
      "type": "function"
    },
    {
      "inputs": [],
      "name": "name",
      "outputs": [
        {
          "internalType": "string",
          "name": "",
          "type": "string"
        }
      ],
      "stateMutability": "view",
      "type": "function"
    },
    {
      "inputs": [],
      "name": "owner",
      "outputs": [
        {
          "internalType": "address",
          "name": "",
          "type": "address"
        }
      ],
      "stateMutability": "view",
      "type": "function"
    },
    {
      "inputs": [
        {
          "internalType": "uint256",
          "name": "tokenId",
          "type": "uint256"
        }
      ],
      "name": "ownerOf",
      "outputs": [
        {
          "internalType": "address",
          "name": "",
          "type": "address"
        }
      ],
      "stateMutability": "view",
      "type": "function"
    },
    {
      "inputs": [],
      "name": "renounceOwnership",
      "outputs": [],
      "stateMutability": "nonpayable",
      "type": "function"
    },
    {
      "inputs": [
        {
          "internalType": "address",
          "name": "from",
          "type": "address"
        },
        {
          "internalType": "address",
          "name": "to",
          "type": "address"
        },
        {
          "internalType": "uint256",
          "name": "tokenId",
          "type": "uint256"
        }
      ],
      "name": "safeTransferFrom",
      "outputs": [],
      "stateMutability": "nonpayable",
      "type": "function"
    },
    {
      "inputs": [
        {
          "internalType": "address",
          "name": "from",
          "type": "address"
        },
        {
          "internalType": "address",
          "name": "to",
          "type": "address"
        },
        {
          "internalType": "uint256",
          "name": "tokenId",
          "type": "uint256"
        },
        {
          "internalType": "bytes",
          "name": "data",
          "type": "bytes"
        }
      ],
      "name": "safeTransferFrom",
      "outputs": [],
      "stateMutability": "nonpayable",
      "type": "function"
    },
    {
      "inputs": [
        {
          "internalType": "address",
          "name": "operator",
          "type": "address"
        },
        {
          "internalType": "bool",
          "name": "approved",
          "type": "bool"
        }
      ],
      "name": "setApprovalForAll",
      "outputs": [],
      "stateMutability": "nonpayable",
      "type": "function"
    },
    {
      "inputs": [],
      "name": "startVideoSession",
      "outputs": [
        {
          "internalType": "uint256",
          "name": "",
          "type": "uint256"
        }
      ],
      "stateMutability": "nonpayable",
      "type": "function"
    },
    {
      "inputs": [
        {
          "internalType": "bytes4",
          "name": "interfaceId",
          "type": "bytes4"
        }
      ],
      "name": "supportsInterface",
      "outputs": [
        {
          "internalType": "bool",
          "name": "",
          "type": "bool"
        }
      ],
      "stateMutability": "view",
      "type": "function"
    },
    {
      "inputs": [],
      "name": "symbol",
      "outputs": [
        {
          "internalType": "string",
          "name": "",
          "type": "string"
        }
      ],
      "stateMutability": "view",
      "type": "function"
    },
    {
      "inputs": [
        {
          "internalType": "uint256",
          "name": "tokenId",
          "type": "uint256"
        }
      ],
      "name": "tokenURI",
      "outputs": [
        {
          "internalType": "string",
          "name": "",
          "type": "string"
        }
      ],
      "stateMutability": "view",
      "type": "function"
    },
    {
      "inputs": [
        {
          "internalType": "address",
          "name": "from",
          "type": "address"
        },
        {
          "internalType": "address",
          "name": "to",
          "type": "address"
        },
        {
          "internalType": "uint256",
          "name": "tokenId",
          "type": "uint256"
        }
      ],
      "name": "transferFrom",
      "outputs": [],
      "stateMutability": "nonpayable",
      "type": "function"
    },
    {
      "inputs": [
        {
          "internalType": "address",
          "name": "newOwner",
          "type": "address"
        }
      ],
      "name": "transferOwnership",
      "outputs": [],
      "stateMutability": "nonpayable",
      "type": "function"
    },
    {
      "inputs": [
        {
          "internalType": "string",
          "name": "imageCID",
          "type": "string"
        }
      ],
      "name": "verifyPhoto",
      "outputs": [
        {
          "internalType": "bool",
          "name": "",
          "type": "bool"
        },
        {
          "internalType": "address",
          "name": "",
          "type": "address"
        }
      ],
      "stateMutability": "view",
      "type": "function"
    }
  ],
  "bytecode": "0x60806040523480156200001157600080fd5b5033604051806040016040528060098152602001680426c6f636b536e61760bc1b81525060405180604001604052806005815260200164042534e41560dc1b8152508160009081620000649190620001ae565b506001620000738282620001ae565b5050506001600160a01b038116620000a557604051631e4fbdf760e01b81526000600482015260240160405180910390fd5b620000b081620000b7565b506200027a565b600780546001600160a01b038381166001600160a01b0319831681179093556040519116919082907f8be0079c531659141344cd1fd0a4f28419497f9722a3daafe3b4186f6b6457e090600090a35050565b634e487b7160e01b600052604160045260246000fd5b600181811c908216806200013457607f821691505b6020821081036200015557634e487b7160e01b600052602260045260246000fd5b50919050565b601f821115620001a957600081815260208120601f850160051c81016020861015620001845750805b601f850160051c820191505b81811015620001a55782815560010162000190565b5050505b505050565b81516001600160401b03811115620001ca57620001ca62000109565b620001e281620001db84546200011f565b846200015b565b602080601f8311600181146200021a5760008415620002015750858301515b600019600386901b1c1916600185901b178555620001a5565b600085815260208120601f198616915b828110156200024b578886015182559484019460019091019084016200022a565b50858210156200026a5787850151600019600388901b60f8161c191681555b5050505050600190811b01905550565b611fcd806200028a6000396000f3fe608060405234801561001057600080fd5b506004361061018e5760003560e01c8063715018a6116100de578063b88d4fde11610097578063d1aef73d11610071578063d1aef73d1461036e578063e1ca8b47146103a0578063e985e9c5146103a8578063f2fde38b146103bb57600080fd5b8063b88d4fde14610340578063c87b56dd14610353578063caa0f92a1461036657600080fd5b8063715018a6146102e65780638da5cb5b146102ee57806395d89b41146102ff578063a15ab3ee14610307578063a22cb4651461031a578063ae6432981461032d57600080fd5b806342842e0e1161014b5780636352211e116101255780636352211e1461028d578063674b31d6146102a05780636b5ac1bf146102c057806370a08231146102d357600080fd5b806342842e0e1461024657806342966c6814610259578063563f4de51461026c57600080fd5b806301ffc9a71461019357806306fdde03146101bb578063081812fc146101d0578063095ea7b3146101fb57806323b872dd146102105780633e87d3ba14610223575b600080fd5b6101a66101a1366004611862565b6103ce565b60405190151581526020015b60405180910390f35b6101c36103f9565b6040516101b291906118cf565b6101e36101de3660046118e2565b61048b565b6040516001600160a01b0390911681526020016101b2565b61020e610209366004611917565b6104b4565b005b61020e61021e366004611941565b6104c3565b6101a66102313660046118e2565b6000908152600d602052604090205460ff1690565b61020e610254366004611941565b610553565b61020e6102673660046118e2565b610573565b61027f61027a366004611a29565b6105d1565b6040519081526020016101b2565b6101e361029b3660046118e2565b610704565b6102b36102ae3660046118e2565b61070f565b6040516101b29190611a9d565b61020e6102ce3660046118e2565b6108c3565b61027f6102e1366004611b44565b6109ca565b61020e610a12565b6007546001600160a01b03166101e3565b6101c3610a26565b6101c36103153660046118e2565b610a35565b61020e610328366004611b5f565b610b41565b61020e61033b366004611b9b565b610b4c565b61020e61034e366004611c12565b610d1d565b6101c36103613660046118e2565b610d35565b60085461027f565b61038161037c366004611c82565b610e46565b6040805192151583526001600160a01b039091166020830152016101b2565b61027f610ebe565b6101a66103b6366004611cb7565b610f3c565b61020e6103c9366004611b44565b610f6a565b60006001600160e01b03198216632483248360e11b14806103f357506103f382610fa5565b92915050565b60606000805461040890611cea565b80601f016020809104026020016040519081016040528092919081815260200182805461043490611cea565b80156104815780601f1061045657610100808354040283529160200191610481565b820191906000526020600020905b81548152906001019060200180831161046457829003601f168201915b5050505050905090565b600061049682610ff5565b506000828152600460205260409020546001600160a01b03166103f3565b6104bf82823361102e565b5050565b6001600160a01b0382166104f257604051633250574960e11b8152600060048201526024015b60405180910390fd5b60006104ff83833361103b565b9050836001600160a01b0316816001600160a01b03161461054d576040516364283d7b60e01b81526001600160a01b03808616600483015260248201849052821660448201526064016104e9565b50505050565b61056e83838360405180602001604052806000815250610d1d565b505050565b3361057d82610704565b6001600160a01b0316146105c55760405162461bcd60e51b815260206004820152600f60248201526e2737ba103a37b5b2b71037bbb732b960891b60448201526064016104e9565b6105ce81611134565b50565b6000808351116106235760405162461bcd60e51b815260206004820152601960248201527f496d616765204349442063616e6e6f7420626520656d7074790000000000000060448201526064016104e9565b60008251116106745760405162461bcd60e51b815260206004820152601c60248201527f4d65746164617461205552492063616e6e6f7420626520656d7074790000000060448201526064016104e9565b600880546000918261068583611d24565b919050559050610695858261116f565b61069f8184611189565b6000818152600a602052604090206106b78582611d91565b50846001600160a01b0316817f32101ae6eac133c618a5a7805b4bd81a687b4395a390142c8c28c63951c9aa4f86866040516106f4929190611e51565b60405180910390a3949350505050565b60006103f382610ff5565b6060600c6000838152602001908152602001600020805480602002602001604051908101604052809291908181526020016000905b828210156108b857838290600052602060002090600502016040518060a0016040529081600082015481526020016001820154815260200160028201805461078b90611cea565b80601f01602080910402602001604051908101604052809291908181526020018280546107b790611cea565b80156108045780601f106107d957610100808354040283529160200191610804565b820191906000526020600020905b8154815290600101906020018083116107e757829003601f168201915b5050505050815260200160038201805461081d90611cea565b80601f016020809104026020016040519081016040528092919081815260200182805461084990611cea565b80156108965780601f1061086b57610100808354040283529160200191610896565b820191906000526020600020905b81548152906001019060200180831161087957829003601f168201915b5050505050815260200160048201548152505081526020019060010190610744565b505050509050919050565b6000818152600d602052604090205460ff166109195760405162461bcd60e51b815260206004820152601560248201527453657373696f6e206973206e6f742061637469766560581b60448201526064016104e9565b6000818152600b60205260409020546001600160a01b031633146109735760405162461bcd60e51b81526020600482015260116024820152702737ba1039b2b9b9b4b7b71037bbb732b960791b60448201526064016104e9565b6000818152600d60209081526040808320805460ff19169055600c82529182902054915191825282917f0113d2922c0508c47b4abf74f4b37a7223e7296ce5dbab09fb5b18b5275780b9910160405180910390a250565b60006001600160a01b0382166109f6576040516322718ad960e21b8152600060048201526024016104e9565b506001600160a01b031660009081526003602052604090205490565b610a1a6111d9565b610a246000611206565b565b60606001805461040890611cea565b606060085482108015610a6057506000828152600a602052604081208054610a5c90611cea565b9050115b610aa35760405162461bcd60e51b8152602060048201526014602482015273151bdad95b88191bd95cc81b9bdd08195e1a5cdd60621b60448201526064016104e9565b6000828152600a602052604090208054610abc90611cea565b80601f0160208091040260200160405190810160405280929190818152602001828054610ae890611cea565b8015610b355780601f10610b0a57610100808354040283529160200191610b35565b820191906000526020600020905b815481529060010190602001808311610b1857829003601f168201915b50505050509050919050565b6104bf338383611258565b6000848152600d602052604090205460ff16610ba25760405162461bcd60e51b815260206004820152601560248201527453657373696f6e206973206e6f742061637469766560581b60448201526064016104e9565b6000848152600b60205260409020546001600160a01b03163314610bfc5760405162461bcd60e51b81526020600482015260116024820152702737ba1039b2b9b9b4b7b71037bbb732b960791b60448201526064016104e9565b6000825111610c4d5760405162461bcd60e51b815260206004820152601960248201527f566964656f204349442063616e6e6f7420626520656d7074790000000000000060448201526064016104e9565b6040805160a0810182528581526020808201868152828401868152606084018690524260808501526000898152600c84529485208054600181810183559187529390952084516005909402019283559051938201939093559151909182916002820190610cba9082611d91565b5060608201516003820190610ccf9082611d91565b50608082015181600401555050847f288ac1dafbdb836bc30d96130864a73b01f5aaf88d406b3ec4337c2114901c648585604051610d0e929190611e7f565b60405180910390a25050505050565b610d288484846104c3565b61054d33858585856112f7565b6060610d4082610ff5565b5060008281526006602052604081208054610d5a90611cea565b80601f0160208091040260200160405190810160405280929190818152602001828054610d8690611cea565b8015610dd35780601f10610da857610100808354040283529160200191610dd3565b820191906000526020600020905b815481529060010190602001808311610db657829003601f168201915b505050505090506000610df160408051602081019091526000815290565b90508051600003610e03575092915050565b815115610e35578082604051602001610e1d929190611e98565b60405160208183030381529060405292505050919050565b610e3e84611422565b949350505050565b60008060005b600854811015610eb2578380519060200120600a6000838152602001908152602001600020604051610e7e9190611ec7565b604051809103902003610ea0576001610e9682610704565b9250925050915091565b80610eaa81611d24565b915050610e4c565b50600093849350915050565b6009805460009182919082610ed283611d24565b909155506000818152600b6020908152604080832080546001600160a01b03191633908117909155600d909252808320805460ff19166001179055519293509183917f9bdb9aedcae8228748c0d2002f4384a1892f38949ac3be3952ffe13c84a1e44791a3919050565b6001600160a01b03918216600090815260056020908152604080832093909416825291909152205460ff1690565b610f726111d9565b6001600160a01b038116610f9c57604051631e4fbdf760e01b8152600060048201526024016104e9565b6105ce81611206565b60006001600160e01b031982166380ac58cd60e01b1480610fd657506001600160e01b03198216635b5e139f60e01b145b806103f357506301ffc9a760e01b6001600160e01b03198316146103f3565b6000818152600260205260408120546001600160a01b0316806103f357604051637e27328960e01b8152600481018490526024016104e9565b61056e8383836001611497565b6000828152600260205260408120546001600160a01b03908116908316156110685761106881848661159d565b6001600160a01b038116156110a657611085600085600080611497565b6001600160a01b038116600090815260036020526040902080546000190190555b6001600160a01b038516156110d5576001600160a01b0385166000908152600360205260409020805460010190555b60008481526002602052604080822080546001600160a01b0319166001600160a01b0389811691821790925591518793918516917fddf252ad1be2c89b69c2b068fc378daa952ba7f163c4a11628f55a4df523b3ef91a4949350505050565b6000611143600083600061103b565b90506001600160a01b0381166104bf57604051637e27328960e01b8152600481018390526024016104e9565b6104bf828260405180602001604052806000815250611601565b60008281526006602052604090206111a18282611d91565b506040518281527ff8e1a15aba9398e019f0b49df1a4fde98ee17ae345cb5f6b5e2c27f5033e8ce79060200160405180910390a15050565b6007546001600160a01b03163314610a245760405163118cdaa760e01b81523360048201526024016104e9565b600780546001600160a01b038381166001600160a01b0319831681179093556040519116919082907f8be0079c531659141344cd1fd0a4f28419497f9722a3daafe3b4186f6b6457e090600090a35050565b6001600160a01b03821661128a57604051630b61174360e31b81526001600160a01b03831660048201526024016104e9565b6001600160a01b03838116600081815260056020908152604080832094871680845294825291829020805460ff191686151590811790915591519182527f17307eab39ab6107e8899845ad3d59bd9653f200f220920489ca2b5937696c31910160405180910390a3505050565b6001600160a01b0383163b1561141b57604051630a85bd0160e11b81526001600160a01b0384169063150b7a0290611339908890889087908790600401611f3d565b6020604051808303816000875af1925050508015611374575060408051601f3d908101601f1916820190925261137191810190611f7a565b60015b6113dd573d8080156113a2576040519150601f19603f3d011682016040523d82523d6000602084013e6113a7565b606091505b5080516000036113d557604051633250574960e11b81526001600160a01b03851660048201526024016104e9565b805181602001fd5b6001600160e01b03198116630a85bd0160e11b1461141957604051633250574960e11b81526001600160a01b03851660048201526024016104e9565b505b5050505050565b606061142d82610ff5565b50600061144560408051602081019091526000815290565b905060008151116114655760405180602001604052806000815250611490565b8061146f84611619565b604051602001611480929190611e98565b6040516020818303038152906040525b9392505050565b80806114ab57506001600160a01b03821615155b1561156d5760006114bb84610ff5565b90506001600160a01b038316158015906114e75750826001600160a01b0316816001600160a01b031614155b80156114fa57506114f88184610f3c565b155b156115235760405163a9fbf51f60e01b81526001600160a01b03841660048201526024016104e9565b811561156b5783856001600160a01b0316826001600160a01b03167f8c5be1e5ebec7d5bd14f71427d1e84f3dd0314c0f7b2291e5b200ac8c7c3b92560405160405180910390a45b505b5050600090815260046020526040902080546001600160a01b0319166001600160a01b0392909216919091179055565b6115a88383836116ac565b61056e576001600160a01b0383166115d657604051637e27328960e01b8152600481018290526024016104e9565b60405163177e802f60e01b81526001600160a01b0383166004820152602481018290526044016104e9565b61160b838361170f565b61056e3360008585856112f7565b6060600061162683611774565b600101905060008167ffffffffffffffff8111156116465761164661197d565b6040519080825280601f01601f191660200182016040528015611670576020820181803683370190505b5090508181016020015b600019016f181899199a1a9b1b9c1cb0b131b232b360811b600a86061a8153600a850494508461167a57509392505050565b60006001600160a01b03831615801590610e3e5750826001600160a01b0316846001600160a01b031614806116e657506116e68484610f3c565b80610e3e5750506000908152600460205260409020546001600160a01b03908116911614919050565b6001600160a01b03821661173957604051633250574960e11b8152600060048201526024016104e9565b60006117478383600061103b565b90506001600160a01b0381161561056e576040516339e3563760e11b8152600060048201526024016104e9565b60008072184f03e93ff9f4daa797ed6e38ed64bf6a1f0160401b83106117b35772184f03e93ff9f4daa797ed6e38ed64bf6a1f0160401b830492506040015b6d04ee2d6d415b85acef810000000083106117df576d04ee2d6d415b85acef8100000000830492506020015b662386f26fc1000083106117fd57662386f26fc10000830492506010015b6305f5e1008310611815576305f5e100830492506008015b612710831061182957612710830492506004015b6064831061183b576064830492506002015b600a83106103f35760010192915050565b6001600160e01b0319811681146105ce57600080fd5b60006020828403121561187457600080fd5b81356114908161184c565b60005b8381101561189a578181015183820152602001611882565b50506000910152565b600081518084526118bb81602086016020860161187f565b601f01601f19169290920160200192915050565b60208152600061149060208301846118a3565b6000602082840312156118f457600080fd5b5035919050565b80356001600160a01b038116811461191257600080fd5b919050565b6000806040838503121561192a57600080fd5b611933836118fb565b946020939093013593505050565b60008060006060848603121561195657600080fd5b61195f846118fb565b925061196d602085016118fb565b9150604084013590509250925092565b634e487b7160e01b600052604160045260246000fd5b600067ffffffffffffffff808411156119ae576119ae61197d565b604051601f8501601f19908116603f011681019082821181831017156119d6576119d661197d565b816040528093508581528686860111156119ef57600080fd5b858560208301376000602087830101525050509392505050565b600082601f830112611a1a57600080fd5b61149083833560208501611993565b600080600060608486031215611a3e57600080fd5b611a47846118fb565b9250602084013567ffffffffffffffff80821115611a6457600080fd5b611a7087838801611a09565b93506040860135915080821115611a8657600080fd5b50611a9386828701611a09565b9150509250925092565b60006020808301818452808551808352604092508286019150828160051b87010184880160005b83811015611b3657603f19898403018552815160a0815185528882015189860152878201518189870152611afa828701826118a3565b91505060608083015186830382880152611b1483826118a3565b6080948501519790940196909652505094870194925090860190600101611ac4565b509098975050505050505050565b600060208284031215611b5657600080fd5b611490826118fb565b60008060408385031215611b7257600080fd5b611b7b836118fb565b915060208301358015158114611b9057600080fd5b809150509250929050565b60008060008060808587031215611bb157600080fd5b8435935060208501359250604085013567ffffffffffffffff80821115611bd757600080fd5b611be388838901611a09565b93506060870135915080821115611bf957600080fd5b50611c0687828801611a09565b91505092959194509250565b60008060008060808587031215611c2857600080fd5b611c31856118fb565b9350611c3f602086016118fb565b925060408501359150606085013567ffffffffffffffff811115611c6257600080fd5b8501601f81018713611c7357600080fd5b611c0687823560208401611993565b600060208284031215611c9457600080fd5b813567ffffffffffffffff811115611cab57600080fd5b610e3e84828501611a09565b60008060408385031215611cca57600080fd5b611cd3836118fb565b9150611ce1602084016118fb565b90509250929050565b600181811c90821680611cfe57607f821691505b602082108103611d1e57634e487b7160e01b600052602260045260246000fd5b50919050565b600060018201611d4457634e487b7160e01b600052601160045260246000fd5b5060010190565b601f82111561056e57600081815260208120601f850160051c81016020861015611d725750805b601f850160051c820191505b8181101561141957828155600101611d7e565b815167ffffffffffffffff811115611dab57611dab61197d565b611dbf81611db98454611cea565b84611d4b565b602080601f831160018114611df45760008415611ddc5750858301515b600019600386901b1c1916600185901b178555611419565b600085815260208120601f198616915b82811015611e2357888601518255948401946001909101908401611e04565b5085821015611e415787850151600019600388901b60f8161c191681555b5050505050600190811b01905550565b604081526000611e6460408301856118a3565b8281036020840152611e7681856118a3565b95945050505050565b828152604060208201526000610e3e60408301846118a3565b60008351611eaa81846020880161187f565b835190830190611ebe81836020880161187f565b01949350505050565b6000808354611ed581611cea565b60018281168015611eed5760018114611f0257611f31565b60ff1984168752821515830287019450611f31565b8760005260208060002060005b85811015611f285781548a820152908401908201611f0f565b50505082870194505b50929695505050505050565b6001600160a01b0385811682528416602082015260408101839052608060608201819052600090611f70908301846118a3565b9695505050505050565b600060208284031215611f8c57600080fd5b81516114908161184c56fea2646970667358221220e2cfbef2bde846b27f9bbf9dbc7c5d87e19b2cc89f4c61850a2cfbc346f6aebe64736f6c63430008140033",
  "linkReferences": {},
  "deployedLinkReferences": {}
}