{
  "_format": "hh-sol-artifact-1",
  "contractName": "BlockSnapNFT",
  "sourceName": "smart_contracts/BlockSnapNFT.sol",
  "abi": [
    {
      "inputs": [],
      "stateMutability": "nonpayable",
      "type": "constructor"
    },
    {
      "inputs": [
        {
          "internalType": "address",
          "name": "sender",
          "type": "address"
        },
        {
          "internalType": "uint256",
          "name": "tokenId",
          "type": "uint256"
        },
        {
          "internalType": "address",
          "name": "owner",
          "type": "address"
        }
      ],
      "name": "ERC721IncorrectOwner",
      "type": "error"
    },
    {
      "inputs": [
        {
          "internalType": "address",
          "name": "operator",
          "type": "address"
        },
        {
          "internalType": "uint256",
          "name": "tokenId",
          "type": "uint256"
        }
      ],
      "name": "ERC721InsufficientApproval",
      "type": "error"
    },
    {
      "inputs": [
        {
          "internalType": "address",
          "name": "approver",
          "type": "address"
        }
      ],
      "name": "ERC721InvalidApprover",
      "type": "error"
    },
    {
      "inputs": [
        {
          "internalType": "address",
          "name": "operator",
          "type": "address"
        }
      ],
      "name": "ERC721InvalidOperator",
      "type": "error"
    },
    {
      "inputs": [
        {
          "internalType": "address",
          "name": "owner",
          "type": "address"
        }
      ],
      "name": "ERC721InvalidOwner",
      "type": "error"
    },
    {
      "inputs": [
        {
          "internalType": "address",
          "name": "receiver",
          "type": "address"
        }
      ],
      "name": "ERC721InvalidReceiver",
      "type": "error"
    },
    {
      "inputs": [
        {
          "internalType": "address",
          "name": "sender",
          "type": "address"
        }
      ],
      "name": "ERC721InvalidSender",
      "type": "error"
    },
    {
      "inputs": [
        {
          "internalType": "uint256",
          "name": "tokenId",
          "type": "uint256"
        }
      ],
      "name": "ERC721NonexistentToken",
      "type": "error"
    },
    {
      "inputs": [
        {
          "internalType": "address",
          "name": "owner",
          "type": "address"
        }
      ],
      "name": "OwnableInvalidOwner",
      "type": "error"
    },
    {
      "inputs": [
        {
          "internalType": "address",
          "name": "account",
          "type": "address"
        }
      ],
      "name": "OwnableUnauthorizedAccount",
      "type": "error"
    },
    {
      "anonymous": false,
      "inputs": [
        {
          "indexed": true,
          "internalType": "address",
          "name": "owner",
          "type": "address"
        },
        {
          "indexed": true,
          "internalType": "address",
          "name": "approved",
          "type": "address"
        },
        {
          "indexed": true,
          "internalType": "uint256",
          "name": "tokenId",
          "type": "uint256"
        }
      ],
      "name": "Approval",
      "type": "event"
    },
    {
      "anonymous": false,
      "inputs": [
        {
          "indexed": true,
          "internalType": "address",
          "name": "owner",
          "type": "address"
        },
        {
          "indexed": true,
          "internalType": "address",
          "name": "operator",
          "type": "address"
        },
        {
          "indexed": false,
          "internalType": "bool",
          "name": "approved",
          "type": "bool"
        }
      ],
      "name": "ApprovalForAll",
      "type": "event"
    },
    {
      "anonymous": false,
      "inputs": [
        {
          "indexed": false,
          "internalType": "uint256",
          "name": "_fromTokenId",
          "type": "uint256"
        },
        {
          "indexed": false,
          "internalType": "uint256",
          "name": "_toTokenId",
          "type": "uint256"
        }
      ],
      "name": "BatchMetadataUpdate",
      "type": "event"
    },
    {
      "anonymous": false,
      "inputs": [
        {
          "indexed": false,
          "internalType": "uint256",
          "name": "_tokenId",
          "type": "uint256"
        }
      ],
      "name": "MetadataUpdate",
      "type": "event"
    },
    {
      "anonymous": false,
      "inputs": [
        {
          "indexed": true,
          "internalType": "address",
          "name": "previousOwner",
          "type": "address"
        },
        {
          "indexed": true,
          "internalType": "address",
          "name": "newOwner",
          "type": "address"
        }
      ],
      "name": "OwnershipTransferred",
      "type": "event"
    },
    {
      "anonymous": false,
      "inputs": [
        {
          "indexed": true,
          "internalType": "uint256",
          "name": "tokenId",
          "type": "uint256"
        },
        {
          "indexed": true,
          "internalType": "address",
          "name": "owner",
          "type": "address"
        },
        {
          "indexed": false,
          "internalType": "string",
          "name": "ipfsCID",
          "type": "string"
        },
        {
          "indexed": false,
          "internalType": "string",
          "name": "metadataURI",
          "type": "string"
        }
      ],
      "name": "PhotoMinted",
      "type": "event"
    },
    {
      "anonymous": false,
      "inputs": [
        {
          "indexed": true,
          "internalType": "address",
          "name": "from",
          "type": "address"
        },
        {
          "indexed": true,
          "internalType": "address",
          "name": "to",
          "type": "address"
        },
        {
          "indexed": true,
          "internalType": "uint256",
          "name": "tokenId",
          "type": "uint256"
        }
      ],
      "name": "Transfer",
      "type": "event"
    },
    {
      "inputs": [
        {
          "internalType": "address",
          "name": "to",
          "type": "address"
        },
        {
          "internalType": "uint256",
          "name": "tokenId",
          "type": "uint256"
        }
      ],
      "name": "approve",
      "outputs": [],
      "stateMutability": "nonpayable",
      "type": "function"
    },
    {
      "inputs": [
        {
          "internalType": "address",
          "name": "owner",
          "type": "address"
        }
      ],
      "name": "balanceOf",
      "outputs": [
        {
          "internalType": "uint256",
          "name": "",
          "type": "uint256"
        }
      ],
      "stateMutability": "view",
      "type": "function"
    },
    {
      "inputs": [
        {
          "internalType": "uint256",
          "name": "tokenId",
          "type": "uint256"
        }
      ],
      "name": "burn",
      "outputs": [],
      "stateMutability": "nonpayable",
      "type": "function"
    },
    {
      "inputs": [
        {
          "internalType": "uint256",
          "name": "tokenId",
          "type": "uint256"
        }
      ],
      "name": "getApproved",
      "outputs": [
        {
          "internalType": "address",
          "name": "",
          "type": "address"
        }
      ],
      "stateMutability": "view",
      "type": "function"
    },
    {
      "inputs": [
        {
          "internalType": "uint256",
          "name": "tokenId",
          "type": "uint256"
        }
      ],
      "name": "getImageCID",
      "outputs": [
        {
          "internalType": "string",
          "name": "",
          "type": "string"
        }
      ],
      "stateMutability": "view",
      "type": "function"
    },
    {
      "inputs": [],
      "name": "getNextTokenId",
      "outputs": [
        {
          "internalType": "uint256",
          "name": "",
          "type": "uint256"
        }
      ],
      "stateMutability": "view",
      "type": "function"
    },
    {
      "inputs": [
        {
          "internalType": "address",
          "name": "owner",
          "type": "address"
        },
        {
          "internalType": "address",
          "name": "operator",
          "type": "address"
        }
      ],
      "name": "isApprovedForAll",
      "outputs": [
        {
          "internalType": "bool",
          "name": "",
          "type": "bool"
        }
      ],
      "stateMutability": "view",
      "type": "function"
    },
    {
      "inputs": [
        {
          "internalType": "address",
          "name": "to",
          "type": "address"
        },
        {
          "internalType": "string",
          "name": "imageCID",
          "type": "string"
        },
        {
          "internalType": "string",
          "name": "metadataURI",
          "type": "string"
        }
      ],
      "name": "mintPhoto",
      "outputs": [
        {
          "internalType": "uint256",
          "name": "",
          "type": "uint256"
        }
      ],
      "stateMutability": "nonpayable",
      "type": "function"
    },
    {
      "inputs": [],
      "name": "name",
      "outputs": [
        {
          "internalType": "string",
          "name": "",
          "type": "string"
        }
      ],
      "stateMutability": "view",
      "type": "function"
    },
    {
      "inputs": [],
      "name": "owner",
      "outputs": [
        {
          "internalType": "address",
          "name": "",
          "type": "address"
        }
      ],
      "stateMutability": "view",
      "type": "function"
    },
    {
      "inputs": [
        {
          "internalType": "uint256",
          "name": "tokenId",
          "type": "uint256"
        }
      ],
      "name": "ownerOf",
      "outputs": [
        {
          "internalType": "address",
          "name": "",
          "type": "address"
        }
      ],
      "stateMutability": "view",
      "type": "function"
    },
    {
      "inputs": [],
      "name": "renounceOwnership",
      "outputs": [],
      "stateMutability": "nonpayable",
      "type": "function"
    },
    {
      "inputs": [
        {
          "internalType": "address",
          "name": "from",
          "type": "address"
        },
        {
          "internalType": "address",
          "name": "to",
          "type": "address"
        },
        {
          "internalType": "uint256",
          "name": "tokenId",
          "type": "uint256"
        }
      ],
      "name": "safeTransferFrom",
      "outputs": [],
      "stateMutability": "nonpayable",
      "type": "function"
    },
    {
      "inputs": [
        {
          "internalType": "address",
          "name": "from",
          "type": "address"
        },
        {
          "internalType": "address",
          "name": "to",
          "type": "address"
        },
        {
          "internalType": "uint256",
          "name": "tokenId",
          "type": "uint256"
        },
        {
          "internalType": "bytes",
          "name": "data",
          "type": "bytes"
        }
      ],
      "name": "safeTransferFrom",
      "outputs": [],
      "stateMutability": "nonpayable",
      "type": "function"
    },
    {
      "inputs": [
        {
          "internalType": "address",
          "name": "operator",
          "type": "address"
        },
        {
          "internalType": "bool",
          "name": "approved",
          "type": "bool"
        }
      ],
      "name": "setApprovalForAll",
      "outputs": [],
      "stateMutability": "nonpayable",
      "type": "function"
    },
    {
      "inputs": [
        {
          "internalType": "bytes4",
          "name": "interfaceId",
          "type": "bytes4"
        }
      ],
      "name": "supportsInterface",
      "outputs": [
        {
          "internalType": "bool",
          "name": "",
          "type": "bool"
        }
      ],
      "stateMutability": "view",
      "type": "function"
    },
    {
      "inputs": [],
      "name": "symbol",
      "outputs": [
        {
          "internalType": "string",
          "name": "",
          "type": "string"
        }
      ],
      "stateMutability": "view",
      "type": "function"
    },
    {
      "inputs": [
        {
          "internalType": "uint256",
          "name": "tokenId",
          "type": "uint256"
        }
      ],
      "name": "tokenURI",
      "outputs": [
        {
          "internalType": "string",
          "name": "",
          "type": "string"
        }
      ],
      "stateMutability": "view",
      "type": "function"
    },
    {
      "inputs": [
        {
          "internalType": "address",
          "name": "from",
          "type": "address"
        },
        {
          "internalType": "address",
          "name": "to",
          "type": "address"
        },
        {
          "internalType": "uint256",
          "name": "tokenId",
          "type": "uint256"
        }
      ],
      "name": "transferFrom",
      "outputs": [],
      "stateMutability": "nonpayable",
      "type": "function"
    },
    {
      "inputs": [
        {
          "internalType": "address",
          "name": "newOwner",
          "type": "address"
        }
      ],
      "name": "transferOwnership",
      "outputs": [],
      "stateMutability": "nonpayable",
      "type": "function"
    },
    {
      "inputs": [
        {
          "internalType": "string",
          "name": "imageCID",
          "type": "string"
        }
      ],
      "name": "verifyPhoto",
      "outputs": [
        {
          "internalType": "bool",
          "name": "",
          "type": "bool"
        },
        {
          "internalType": "address",
          "name": "",
          "type": "address"
        }
      ],
      "stateMutability": "view",
      "type": "function"
    }
  ],
  "bytecode": "0x60806040523480156200001157600080fd5b5033604051806040016040528060098152602001680426c6f636b536e61760bc1b81525060405180604001604052806005815260200164042534e41560dc1b8152508160009081620000649190620001ae565b506001620000738282620001ae565b5050506001600160a01b038116620000a557604051631e4fbdf760e01b81526000600482015260240160405180910390fd5b620000b081620000b7565b506200027a565b600780546001600160a01b038381166001600160a01b0319831681179093556040519116919082907f8be0079c531659141344cd1fd0a4f28419497f9722a3daafe3b4186f6b6457e090600090a35050565b634e487b7160e01b600052604160045260246000fd5b600181811c908216806200013457607f821691505b6020821081036200015557634e487b7160e01b600052602260045260246000fd5b50919050565b601f821115620001a957600081815260208120601f850160051c81016020861015620001845750805b601f850160051c820191505b81811015620001a55782815560010162000190565b5050505b505050565b81516001600160401b03811115620001ca57620001ca62000109565b620001e281620001db84546200011f565b846200015b565b602080601f8311600181146200021a5760008415620002015750858301515b600019600386901b1c1916600185901b178555620001a5565b600085815260208120601f198616915b828110156200024b578886015182559484019460019091019084016200022a565b50858210156200026a5787850151600019600388901b60f8161c191681555b5050505050600190811b01905550565b6118d0806200028a6000396000f3fe608060405234801561001057600080fd5b50600436106101375760003560e01c8063715018a6116100b8578063b88d4fde1161007c578063b88d4fde14610280578063c87b56dd14610293578063caa0f92a146102a6578063d1aef73d146102ae578063e985e9c5146102e0578063f2fde38b146102f357600080fd5b8063715018a6146102395780638da5cb5b1461024157806395d89b4114610252578063a15ab3ee1461025a578063a22cb4651461026d57600080fd5b806342842e0e116100ff57806342842e0e146101cc57806342966c68146101df578063563f4de5146101f25780636352211e1461021357806370a082311461022657600080fd5b806301ffc9a71461013c57806306fdde0314610164578063081812fc14610179578063095ea7b3146101a457806323b872dd146101b9575b600080fd5b61014f61014a366004611290565b610306565b60405190151581526020015b60405180910390f35b61016c610331565b60405161015b91906112fd565b61018c610187366004611310565b6103c3565b6040516001600160a01b03909116815260200161015b565b6101b76101b2366004611345565b6103ec565b005b6101b76101c736600461136f565b6103fb565b6101b76101da36600461136f565b61048b565b6101b76101ed366004611310565b6104ab565b610205610200366004611457565b610509565b60405190815260200161015b565b61018c610221366004611310565b61063c565b6102056102343660046114cb565b610647565b6101b761068f565b6007546001600160a01b031661018c565b61016c6106a3565b61016c610268366004611310565b6106b2565b6101b761027b3660046114e6565b6107be565b6101b761028e366004611522565b6107c9565b61016c6102a1366004611310565b6107e1565b600854610205565b6102c16102bc36600461159e565b6108f2565b6040805192151583526001600160a01b0390911660208301520161015b565b61014f6102ee3660046115d3565b61096a565b6101b76103013660046114cb565b610998565b60006001600160e01b03198216632483248360e11b148061032b575061032b826109d3565b92915050565b60606000805461034090611606565b80601f016020809104026020016040519081016040528092919081815260200182805461036c90611606565b80156103b95780601f1061038e576101008083540402835291602001916103b9565b820191906000526020600020905b81548152906001019060200180831161039c57829003601f168201915b5050505050905090565b60006103ce82610a23565b506000828152600460205260409020546001600160a01b031661032b565b6103f7828233610a5c565b5050565b6001600160a01b03821661042a57604051633250574960e11b8152600060048201526024015b60405180910390fd5b6000610437838333610a69565b9050836001600160a01b0316816001600160a01b031614610485576040516364283d7b60e01b81526001600160a01b0380861660048301526024820184905282166044820152606401610421565b50505050565b6104a6838383604051806020016040528060008152506107c9565b505050565b336104b58261063c565b6001600160a01b0316146104fd5760405162461bcd60e51b815260206004820152600f60248201526e2737ba103a37b5b2b71037bbb732b960891b6044820152606401610421565b61050681610b62565b50565b60008083511161055b5760405162461bcd60e51b815260206004820152601960248201527f496d616765204349442063616e6e6f7420626520656d707479000000000000006044820152606401610421565b60008251116105ac5760405162461bcd60e51b815260206004820152601c60248201527f4d65746164617461205552492063616e6e6f7420626520656d707479000000006044820152606401610421565b60088054600091826105bd83611640565b9190505590506105cd8582610b9d565b6105d78184610bb7565b60008181526009602052604090206105ef85826116ad565b50846001600160a01b0316817f32101ae6eac133c618a5a7805b4bd81a687b4395a390142c8c28c63951c9aa4f868660405161062c92919061176d565b60405180910390a3949350505050565b600061032b82610a23565b60006001600160a01b038216610673576040516322718ad960e21b815260006004820152602401610421565b506001600160a01b031660009081526003602052604090205490565b610697610c07565b6106a16000610c34565b565b60606001805461034090611606565b6060600854821080156106dd5750600082815260096020526040812080546106d990611606565b9050115b6107205760405162461bcd60e51b8152602060048201526014602482015273151bdad95b88191bd95cc81b9bdd08195e1a5cdd60621b6044820152606401610421565b6000828152600960205260409020805461073990611606565b80601f016020809104026020016040519081016040528092919081815260200182805461076590611606565b80156107b25780601f10610787576101008083540402835291602001916107b2565b820191906000526020600020905b81548152906001019060200180831161079557829003601f168201915b50505050509050919050565b6103f7338383610c86565b6107d48484846103fb565b6104853385858585610d25565b60606107ec82610a23565b506000828152600660205260408120805461080690611606565b80601f016020809104026020016040519081016040528092919081815260200182805461083290611606565b801561087f5780601f106108545761010080835404028352916020019161087f565b820191906000526020600020905b81548152906001019060200180831161086257829003601f168201915b50505050509050600061089d60408051602081019091526000815290565b905080516000036108af575092915050565b8151156108e15780826040516020016108c992919061179b565b60405160208183030381529060405292505050919050565b6108ea84610e50565b949350505050565b60008060005b60085481101561095e5783805190602001206009600083815260200190815260200160002060405161092a91906117ca565b60405180910390200361094c5760016109428261063c565b9250925050915091565b8061095681611640565b9150506108f8565b50600093849350915050565b6001600160a01b03918216600090815260056020908152604080832093909416825291909152205460ff1690565b6109a0610c07565b6001600160a01b0381166109ca57604051631e4fbdf760e01b815260006004820152602401610421565b61050681610c34565b60006001600160e01b031982166380ac58cd60e01b1480610a0457506001600160e01b03198216635b5e139f60e01b145b8061032b57506301ffc9a760e01b6001600160e01b031983161461032b565b6000818152600260205260408120546001600160a01b03168061032b57604051637e27328960e01b815260048101849052602401610421565b6104a68383836001610ec5565b6000828152600260205260408120546001600160a01b0390811690831615610a9657610a96818486610fcb565b6001600160a01b03811615610ad457610ab3600085600080610ec5565b6001600160a01b038116600090815260036020526040902080546000190190555b6001600160a01b03851615610b03576001600160a01b0385166000908152600360205260409020805460010190555b60008481526002602052604080822080546001600160a01b0319166001600160a01b0389811691821790925591518793918516917fddf252ad1be2c89b69c2b068fc378daa952ba7f163c4a11628f55a4df523b3ef91a4949350505050565b6000610b716000836000610a69565b90506001600160a01b0381166103f757604051637e27328960e01b815260048101839052602401610421565b6103f782826040518060200160405280600081525061102f565b6000828152600660205260409020610bcf82826116ad565b506040518281527ff8e1a15aba9398e019f0b49df1a4fde98ee17ae345cb5f6b5e2c27f5033e8ce79060200160405180910390a15050565b6007546001600160a01b031633146106a15760405163118cdaa760e01b8152336004820152602401610421565b600780546001600160a01b038381166001600160a01b0319831681179093556040519116919082907f8be0079c531659141344cd1fd0a4f28419497f9722a3daafe3b4186f6b6457e090600090a35050565b6001600160a01b038216610cb857604051630b61174360e31b81526001600160a01b0383166004820152602401610421565b6001600160a01b03838116600081815260056020908152604080832094871680845294825291829020805460ff191686151590811790915591519182527f17307eab39ab6107e8899845ad3d59bd9653f200f220920489ca2b5937696c31910160405180910390a3505050565b6001600160a01b0383163b15610e4957604051630a85bd0160e11b81526001600160a01b0384169063150b7a0290610d67908890889087908790600401611840565b6020604051808303816000875af1925050508015610da2575060408051601f3d908101601f19168201909252610d9f9181019061187d565b60015b610e0b573d808015610dd0576040519150601f19603f3d011682016040523d82523d6000602084013e610dd5565b606091505b508051600003610e0357604051633250574960e11b81526001600160a01b0385166004820152602401610421565b805181602001fd5b6001600160e01b03198116630a85bd0160e11b14610e4757604051633250574960e11b81526001600160a01b0385166004820152602401610421565b505b5050505050565b6060610e5b82610a23565b506000610e7360408051602081019091526000815290565b90506000815111610e935760405180602001604052806000815250610ebe565b80610e9d84611047565b604051602001610eae92919061179b565b6040516020818303038152906040525b9392505050565b8080610ed957506001600160a01b03821615155b15610f9b576000610ee984610a23565b90506001600160a01b03831615801590610f155750826001600160a01b0316816001600160a01b031614155b8015610f285750610f26818461096a565b155b15610f515760405163a9fbf51f60e01b81526001600160a01b0384166004820152602401610421565b8115610f995783856001600160a01b0316826001600160a01b03167f8c5be1e5ebec7d5bd14f71427d1e84f3dd0314c0f7b2291e5b200ac8c7c3b92560405160405180910390a45b505b5050600090815260046020526040902080546001600160a01b0319166001600160a01b0392909216919091179055565b610fd68383836110da565b6104a6576001600160a01b03831661100457604051637e27328960e01b815260048101829052602401610421565b60405163177e802f60e01b81526001600160a01b038316600482015260248101829052604401610421565b611039838361113d565b6104a6336000858585610d25565b60606000611054836111a2565b600101905060008167ffffffffffffffff811115611074576110746113ab565b6040519080825280601f01601f19166020018201604052801561109e576020820181803683370190505b5090508181016020015b600019016f181899199a1a9b1b9c1cb0b131b232b360811b600a86061a8153600a85049450846110a857509392505050565b60006001600160a01b038316158015906108ea5750826001600160a01b0316846001600160a01b031614806111145750611114848461096a565b806108ea5750506000908152600460205260409020546001600160a01b03908116911614919050565b6001600160a01b03821661116757604051633250574960e11b815260006004820152602401610421565b600061117583836000610a69565b90506001600160a01b038116156104a6576040516339e3563760e11b815260006004820152602401610421565b60008072184f03e93ff9f4daa797ed6e38ed64bf6a1f0160401b83106111e15772184f03e93ff9f4daa797ed6e38ed64bf6a1f0160401b830492506040015b6d04ee2d6d415b85acef8100000000831061120d576d04ee2d6d415b85acef8100000000830492506020015b662386f26fc10000831061122b57662386f26fc10000830492506010015b6305f5e1008310611243576305f5e100830492506008015b612710831061125757612710830492506004015b60648310611269576064830492506002015b600a831061032b5760010192915050565b6001600160e01b03198116811461050657600080fd5b6000602082840312156112a257600080fd5b8135610ebe8161127a565b60005b838110156112c85781810151838201526020016112b0565b50506000910152565b600081518084526112e98160208601602086016112ad565b601f01601f19169290920160200192915050565b602081526000610ebe60208301846112d1565b60006020828403121561132257600080fd5b5035919050565b80356001600160a01b038116811461134057600080fd5b919050565b6000806040838503121561135857600080fd5b61136183611329565b946020939093013593505050565b60008060006060848603121561138457600080fd5b61138d84611329565b925061139b60208501611329565b9150604084013590509250925092565b634e487b7160e01b600052604160045260246000fd5b600067ffffffffffffffff808411156113dc576113dc6113ab565b604051601f8501601f19908116603f01168101908282118183101715611404576114046113ab565b8160405280935085815286868601111561141d57600080fd5b858560208301376000602087830101525050509392505050565b600082601f83011261144857600080fd5b610ebe838335602085016113c1565b60008060006060848603121561146c57600080fd5b61147584611329565b9250602084013567ffffffffffffffff8082111561149257600080fd5b61149e87838801611437565b935060408601359150808211156114b457600080fd5b506114c186828701611437565b9150509250925092565b6000602082840312156114dd57600080fd5b610ebe82611329565b600080604083850312156114f957600080fd5b61150283611329565b91506020830135801515811461151757600080fd5b809150509250929050565b6000806000806080858703121561153857600080fd5b61154185611329565b935061154f60208601611329565b925060408501359150606085013567ffffffffffffffff81111561157257600080fd5b8501601f8101871361158357600080fd5b611592878235602084016113c1565b91505092959194509250565b6000602082840312156115b057600080fd5b813567ffffffffffffffff8111156115c757600080fd5b6108ea84828501611437565b600080604083850312156115e657600080fd5b6115ef83611329565b91506115fd60208401611329565b90509250929050565b600181811c9082168061161a57607f821691505b60208210810361163a57634e487b7160e01b600052602260045260246000fd5b50919050565b60006001820161166057634e487b7160e01b600052601160045260246000fd5b5060010190565b601f8211156104a657600081815260208120601f850160051c8101602086101561168e5750805b601f850160051c820191505b81811015610e475782815560010161169a565b815167ffffffffffffffff8111156116c7576116c76113ab565b6116db816116d58454611606565b84611667565b602080601f83116001811461171057600084156116f85750858301515b600019600386901b1c1916600185901b178555610e47565b600085815260208120601f198616915b8281101561173f57888601518255948401946001909101908401611720565b508582101561175d5787850151600019600388901b60f8161c191681555b5050505050600190811b01905550565b60408152600061178060408301856112d1565b828103602084015261179281856112d1565b95945050505050565b600083516117ad8184602088016112ad565b8351908301906117c18183602088016112ad565b01949350505050565b60008083546117d881611606565b600182811680156117f0576001811461180557611834565b60ff1984168752821515830287019450611834565b8760005260208060002060005b8581101561182b5781548a820152908401908201611812565b50505082870194505b50929695505050505050565b6001600160a01b0385811682528416602082015260408101839052608060608201819052600090611873908301846112d1565b9695505050505050565b60006020828403121561188f57600080fd5b8151610ebe8161127a56fea2646970667358221220cf899b0482a571c2712ab7f5bd768a74f1470869b67957d0b2d6d097563d2a9364736f6c63430008140033",
  "linkReferences": {},
  "deployedLinkReferences": {}
}