{
  "_format": "hh-sol-artifact-1",
  "contractName": "BlockSnapNFT",
  "sourceName": "smart_contracts/BlockSnapNFT.sol",
  "abi": [
    {
      "inputs": [],
      "stateMutability": "nonpayable",
      "type": "constructor"
    },
    {
      "inputs": [
        {
          "internalType": "address",
          "name": "sender",
          "type": "address"
        },
        {
          "internalType": "uint256",
          "name": "tokenId",
          "type": "uint256"
        },
        {
          "internalType": "address",
          "name": "owner",
          "type": "address"
        }
      ],
      "name": "ERC721IncorrectOwner",
      "type": "error"
    },
    {
      "inputs": [
        {
          "internalType": "address",
          "name": "operator",
          "type": "address"
        },
        {
          "internalType": "uint256",
          "name": "tokenId",
          "type": "uint256"
        }
      ],
      "name": "ERC721InsufficientApproval",
      "type": "error"
    },
    {
      "inputs": [
        {
          "internalType": "address",
          "name": "approver",
          "type": "address"
        }
      ],
      "name": "ERC721InvalidApprover",
      "type": "error"
    },
    {
      "inputs": [
        {
          "internalType": "address",
          "name": "operator",
          "type": "address"
        }
      ],
      "name": "ERC721InvalidOperator",
      "type": "error"
    },
    {
      "inputs": [
        {
          "internalType": "address",
          "name": "owner",
          "type": "address"
        }
      ],
      "name": "ERC721InvalidOwner",
      "type": "error"
    },
    {
      "inputs": [
        {
          "internalType": "address",
          "name": "receiver",
          "type": "address"
        }
      ],
      "name": "ERC721InvalidReceiver",
      "type": "error"
    },
    {
      "inputs": [
        {
          "internalType": "address",
          "name": "sender",
          "type": "address"
        }
      ],
      "name": "ERC721InvalidSender",
      "type": "error"
    },
    {
      "inputs": [
        {
          "internalType": "uint256",
          "name": "tokenId",
          "type": "uint256"
        }
      ],
      "name": "ERC721NonexistentToken",
      "type": "error"
    },
    {
      "inputs": [
        {
          "internalType": "address",
          "name": "owner",
          "type": "address"
        }
      ],
      "name": "OwnableInvalidOwner",
      "type": "error"
    },
    {
      "inputs": [
        {
          "internalType": "address",
          "name": "account",
          "type": "address"
        }
      ],
      "name": "OwnableUnauthorizedAccount",
      "type": "error"
    },
    {
      "anonymous": false,
      "inputs": [
        {
          "indexed": true,
          "internalType": "address",
          "name": "owner",
          "type": "address"
        },
        {
          "indexed": true,
          "internalType": "address",
          "name": "approved",
          "type": "address"
        },
        {
          "indexed": true,
          "internalType": "uint256",
          "name": "tokenId",
          "type": "uint256"
        }
      ],
      "name": "Approval",
      "type": "event"
    },
    {
      "anonymous": false,
      "inputs": [
        {
          "indexed": true,
          "internalType": "address",
          "name": "owner",
          "type": "address"
        },
        {
          "indexed": true,
          "internalType": "address",
          "name": "operator",
          "type": "address"
        },
        {
          "indexed": false,
          "internalType": "bool",
          "name": "approved",
          "type": "bool"
        }
      ],
      "name": "ApprovalForAll",
      "type": "event"
    },
    {
      "anonymous": false,
      "inputs": [
        {
          "indexed": false,
          "internalType": "uint256",
          "name": "_fromTokenId",
          "type": "uint256"
        },
        {
          "indexed": false,
          "internalType": "uint256",
          "name": "_toTokenId",
          "type": "uint256"
        }
      ],
      "name": "BatchMetadataUpdate",
      "type": "event"
    },
    {
      "anonymous": false,
      "inputs": [
        {
          "indexed": false,
          "internalType": "uint256",
          "name": "_tokenId",
          "type": "uint256"
        }
      ],
      "name": "MetadataUpdate",
      "type": "event"
    },
    {
      "anonymous": false,
      "inputs": [
        {
          "indexed": true,
          "internalType": "address",
          "name": "previousOwner",
          "type": "address"
        },
        {
          "indexed": true,
          "internalType": "address",
          "name": "newOwner",
          "type": "address"
        }
      ],
      "name": "OwnershipTransferred",
      "type": "event"
    },
    {
      "anonymous": false,
      "inputs": [
        {
          "indexed": true,
          "internalType": "uint256",
          "name": "tokenId",
          "type": "uint256"
        },
        {
          "indexed": true,
          "internalType": "address",
          "name": "owner",
          "type": "address"
        },
        {
          "indexed": false,
          "internalType": "string",
          "name": "ipfsCID",
          "type": "string"
        },
        {
          "indexed": false,
          "internalType": "string",
          "name": "metadataURI",
          "type": "string"
        }
      ],
      "name": "PhotoMinted",
      "type": "event"
    },
    {
      "anonymous": false,
      "inputs": [
        {
          "indexed": true,
          "internalType": "address",
          "name": "from",
          "type": "address"
        },
        {
          "indexed": true,
          "internalType": "address",
          "name": "to",
          "type": "address"
        },
        {
          "indexed": true,
          "internalType": "uint256",
          "name": "tokenId",
          "type": "uint256"
        }
      ],
      "name": "Transfer",
      "type": "event"
    },
    {
      "inputs": [
        {
          "internalType": "address",
          "name": "to",
          "type": "address"
        },
        {
          "internalType": "uint256",
          "name": "tokenId",
          "type": "uint256"
        }
      ],
      "name": "approve",
      "outputs": [],
      "stateMutability": "nonpayable",
      "type": "function"
    },
    {
      "inputs": [
        {
          "internalType": "address",
          "name": "owner",
          "type": "address"
        }
      ],
      "name": "balanceOf",
      "outputs": [
        {
          "internalType": "uint256",
          "name": "",
          "type": "uint256"
        }
      ],
      "stateMutability": "view",
      "type": "function"
    },
    {
      "inputs": [
        {
          "internalType": "uint256",
          "name": "tokenId",
          "type": "uint256"
        }
      ],
      "name": "burn",
      "outputs": [],
      "stateMutability": "nonpayable",
      "type": "function"
    },
    {
      "inputs": [
        {
          "internalType": "uint256",
          "name": "tokenId",
          "type": "uint256"
        }
      ],
      "name": "getApproved",
      "outputs": [
        {
          "internalType": "address",
          "name": "",
          "type": "address"
        }
      ],
      "stateMutability": "view",
      "type": "function"
    },
    {
      "inputs": [
        {
          "internalType": "uint256",
          "name": "tokenId",
          "type": "uint256"
        }
      ],
      "name": "getImageCID",
      "outputs": [
        {
          "internalType": "string",
          "name": "",
          "type": "string"
        }
      ],
      "stateMutability": "view",
      "type": "function"
    },
    {
      "inputs": [
        {
          "internalType": "address",
          "name": "owner",
          "type": "address"
        },
        {
          "internalType": "address",
          "name": "operator",
          "type": "address"
        }
      ],
      "name": "isApprovedForAll",
      "outputs": [
        {
          "internalType": "bool",
          "name": "",
          "type": "bool"
        }
      ],
      "stateMutability": "view",
      "type": "function"
    },
    {
      "inputs": [
        {
          "internalType": "address",
          "name": "to",
          "type": "address"
        },
        {
          "internalType": "string",
          "name": "imageCID",
          "type": "string"
        },
        {
          "internalType": "string",
          "name": "metadataURI",
          "type": "string"
        }
      ],
      "name": "mintPhoto",
      "outputs": [
        {
          "internalType": "uint256",
          "name": "",
          "type": "uint256"
        }
      ],
      "stateMutability": "nonpayable",
      "type": "function"
    },
    {
      "inputs": [],
      "name": "name",
      "outputs": [
        {
          "internalType": "string",
          "name": "",
          "type": "string"
        }
      ],
      "stateMutability": "view",
      "type": "function"
    },
    {
      "inputs": [],
      "name": "owner",
      "outputs": [
        {
          "internalType": "address",
          "name": "",
          "type": "address"
        }
      ],
      "stateMutability": "view",
      "type": "function"
    },
    {
      "inputs": [
        {
          "internalType": "uint256",
          "name": "tokenId",
          "type": "uint256"
        }
      ],
      "name": "ownerOf",
      "outputs": [
        {
          "internalType": "address",
          "name": "",
          "type": "address"
        }
      ],
      "stateMutability": "view",
      "type": "function"
    },
    {
      "inputs": [],
      "name": "renounceOwnership",
      "outputs": [],
      "stateMutability": "nonpayable",
      "type": "function"
    },
    {
      "inputs": [
        {
          "internalType": "address",
          "name": "from",
          "type": "address"
        },
        {
          "internalType": "address",
          "name": "to",
          "type": "address"
        },
        {
          "internalType": "uint256",
          "name": "tokenId",
          "type": "uint256"
        }
      ],
      "name": "safeTransferFrom",
      "outputs": [],
      "stateMutability": "nonpayable",
      "type": "function"
    },
    {
      "inputs": [
        {
          "internalType": "address",
          "name": "from",
          "type": "address"
        },
        {
          "internalType": "address",
          "name": "to",
          "type": "address"
        },
        {
          "internalType": "uint256",
          "name": "tokenId",
          "type": "uint256"
        },
        {
          "internalType": "bytes",
          "name": "data",
          "type": "bytes"
        }
      ],
      "name": "safeTransferFrom",
      "outputs": [],
      "stateMutability": "nonpayable",
      "type": "function"
    },
    {
      "inputs": [
        {
          "internalType": "address",
          "name": "operator",
          "type": "address"
        },
        {
          "internalType": "bool",
          "name": "approved",
          "type": "bool"
        }
      ],
      "name": "setApprovalForAll",
      "outputs": [],
      "stateMutability": "nonpayable",
      "type": "function"
    },
    {
      "inputs": [
        {
          "internalType": "bytes4",
          "name": "interfaceId",
          "type": "bytes4"
        }
      ],
      "name": "supportsInterface",
      "outputs": [
        {
          "internalType": "bool",
          "name": "",
          "type": "bool"
        }
      ],
      "stateMutability": "view",
      "type": "function"
    },
    {
      "inputs": [],
      "name": "symbol",
      "outputs": [
        {
          "internalType": "string",
          "name": "",
          "type": "string"
        }
      ],
      "stateMutability": "view",
      "type": "function"
    },
    {
      "inputs": [
        {
          "internalType": "uint256",
          "name": "tokenId",
          "type": "uint256"
        }
      ],
      "name": "tokenURI",
      "outputs": [
        {
          "internalType": "string",
          "name": "",
          "type": "string"
        }
      ],
      "stateMutability": "view",
      "type": "function"
    },
    {
      "inputs": [
        {
          "internalType": "address",
          "name": "from",
          "type": "address"
        },
        {
          "internalType": "address",
          "name": "to",
          "type": "address"
        },
        {
          "internalType": "uint256",
          "name": "tokenId",
          "type": "uint256"
        }
      ],
      "name": "transferFrom",
      "outputs": [],
      "stateMutability": "nonpayable",
      "type": "function"
    },
    {
      "inputs": [
        {
          "internalType": "address",
          "name": "newOwner",
          "type": "address"
        }
      ],
      "name": "transferOwnership",
      "outputs": [],
      "stateMutability": "nonpayable",
      "type": "function"
    },
    {
      "inputs": [
        {
          "internalType": "string",
          "name": "imageCID",
          "type": "string"
        }
      ],
      "name": "verifyPhoto",
      "outputs": [
        {
          "internalType": "bool",
          "name": "",
          "type": "bool"
        },
        {
          "internalType": "address",
          "name": "",
          "type": "address"
        }
      ],
      "stateMutability": "view",
      "type": "function"
    }
  ],
  "bytecode": "0x60806040523480156200001157600080fd5b5033604051806040016040528060098152602001680426c6f636b536e61760bc1b81525060405180604001604052806005815260200164042534e41560dc1b8152508160009081620000649190620001ae565b506001620000738282620001ae565b5050506001600160a01b038116620000a557604051631e4fbdf760e01b81526000600482015260240160405180910390fd5b620000b081620000b7565b506200027a565b600780546001600160a01b038381166001600160a01b0319831681179093556040519116919082907f8be0079c531659141344cd1fd0a4f28419497f9722a3daafe3b4186f6b6457e090600090a35050565b634e487b7160e01b600052604160045260246000fd5b600181811c908216806200013457607f821691505b6020821081036200015557634e487b7160e01b600052602260045260246000fd5b50919050565b601f821115620001a957600081815260208120601f850160051c81016020861015620001845750805b601f850160051c820191505b81811015620001a55782815560010162000190565b5050505b505050565b81516001600160401b03811115620001ca57620001ca62000109565b620001e281620001db84546200011f565b846200015b565b602080601f8311600181146200021a5760008415620002015750858301515b600019600386901b1c1916600185901b178555620001a5565b600085815260208120601f198616915b828110156200024b578886015182559484019460019091019084016200022a565b50858210156200026a5787850151600019600388901b60f8161c191681555b5050505050600190811b01905550565b6118bd806200028a6000396000f3fe608060405234801561001057600080fd5b506004361061012c5760003560e01c8063715018a6116100ad578063b88d4fde11610071578063b88d4fde14610275578063c87b56dd14610288578063d1aef73d1461029b578063e985e9c5146102cd578063f2fde38b146102e057600080fd5b8063715018a61461022e5780638da5cb5b1461023657806395d89b4114610247578063a15ab3ee1461024f578063a22cb4651461026257600080fd5b806342842e0e116100f457806342842e0e146101c157806342966c68146101d4578063563f4de5146101e75780636352211e1461020857806370a082311461021b57600080fd5b806301ffc9a71461013157806306fdde0314610159578063081812fc1461016e578063095ea7b31461019957806323b872dd146101ae575b600080fd5b61014461013f36600461127d565b6102f3565b60405190151581526020015b60405180910390f35b61016161031e565b60405161015091906112ea565b61018161017c3660046112fd565b6103b0565b6040516001600160a01b039091168152602001610150565b6101ac6101a7366004611332565b6103d9565b005b6101ac6101bc36600461135c565b6103e8565b6101ac6101cf36600461135c565b610478565b6101ac6101e23660046112fd565b610498565b6101fa6101f5366004611444565b6104f6565b604051908152602001610150565b6101816102163660046112fd565b610629565b6101fa6102293660046114b8565b610634565b6101ac61067c565b6007546001600160a01b0316610181565b610161610690565b61016161025d3660046112fd565b61069f565b6101ac6102703660046114d3565b6107ab565b6101ac61028336600461150f565b6107b6565b6101616102963660046112fd565b6107ce565b6102ae6102a936600461158b565b6108df565b6040805192151583526001600160a01b03909116602083015201610150565b6101446102db3660046115c0565b610957565b6101ac6102ee3660046114b8565b610985565b60006001600160e01b03198216632483248360e11b14806103185750610318826109c0565b92915050565b60606000805461032d906115f3565b80601f0160208091040260200160405190810160405280929190818152602001828054610359906115f3565b80156103a65780601f1061037b576101008083540402835291602001916103a6565b820191906000526020600020905b81548152906001019060200180831161038957829003601f168201915b5050505050905090565b60006103bb82610a10565b506000828152600460205260409020546001600160a01b0316610318565b6103e4828233610a49565b5050565b6001600160a01b03821661041757604051633250574960e11b8152600060048201526024015b60405180910390fd5b6000610424838333610a56565b9050836001600160a01b0316816001600160a01b031614610472576040516364283d7b60e01b81526001600160a01b038086166004830152602482018490528216604482015260640161040e565b50505050565b610493838383604051806020016040528060008152506107b6565b505050565b336104a282610629565b6001600160a01b0316146104ea5760405162461bcd60e51b815260206004820152600f60248201526e2737ba103a37b5b2b71037bbb732b960891b604482015260640161040e565b6104f381610b4f565b50565b6000808351116105485760405162461bcd60e51b815260206004820152601960248201527f496d616765204349442063616e6e6f7420626520656d70747900000000000000604482015260640161040e565b60008251116105995760405162461bcd60e51b815260206004820152601c60248201527f4d65746164617461205552492063616e6e6f7420626520656d70747900000000604482015260640161040e565b60088054600091826105aa8361162d565b9190505590506105ba8582610b8a565b6105c48184610ba4565b60008181526009602052604090206105dc858261169a565b50846001600160a01b0316817f32101ae6eac133c618a5a7805b4bd81a687b4395a390142c8c28c63951c9aa4f868660405161061992919061175a565b60405180910390a3949350505050565b600061031882610a10565b60006001600160a01b038216610660576040516322718ad960e21b81526000600482015260240161040e565b506001600160a01b031660009081526003602052604090205490565b610684610bf4565b61068e6000610c21565b565b60606001805461032d906115f3565b6060600854821080156106ca5750600082815260096020526040812080546106c6906115f3565b9050115b61070d5760405162461bcd60e51b8152602060048201526014602482015273151bdad95b88191bd95cc81b9bdd08195e1a5cdd60621b604482015260640161040e565b60008281526009602052604090208054610726906115f3565b80601f0160208091040260200160405190810160405280929190818152602001828054610752906115f3565b801561079f5780601f106107745761010080835404028352916020019161079f565b820191906000526020600020905b81548152906001019060200180831161078257829003601f168201915b50505050509050919050565b6103e4338383610c73565b6107c18484846103e8565b6104723385858585610d12565b60606107d982610a10565b50600082815260066020526040812080546107f3906115f3565b80601f016020809104026020016040519081016040528092919081815260200182805461081f906115f3565b801561086c5780601f106108415761010080835404028352916020019161086c565b820191906000526020600020905b81548152906001019060200180831161084f57829003601f168201915b50505050509050600061088a60408051602081019091526000815290565b9050805160000361089c575092915050565b8151156108ce5780826040516020016108b6929190611788565b60405160208183030381529060405292505050919050565b6108d784610e3d565b949350505050565b60008060005b60085481101561094b5783805190602001206009600083815260200190815260200160002060405161091791906117b7565b60405180910390200361093957600161092f82610629565b9250925050915091565b806109438161162d565b9150506108e5565b50600093849350915050565b6001600160a01b03918216600090815260056020908152604080832093909416825291909152205460ff1690565b61098d610bf4565b6001600160a01b0381166109b757604051631e4fbdf760e01b81526000600482015260240161040e565b6104f381610c21565b60006001600160e01b031982166380ac58cd60e01b14806109f157506001600160e01b03198216635b5e139f60e01b145b8061031857506301ffc9a760e01b6001600160e01b0319831614610318565b6000818152600260205260408120546001600160a01b03168061031857604051637e27328960e01b81526004810184905260240161040e565b6104938383836001610eb2565b6000828152600260205260408120546001600160a01b0390811690831615610a8357610a83818486610fb8565b6001600160a01b03811615610ac157610aa0600085600080610eb2565b6001600160a01b038116600090815260036020526040902080546000190190555b6001600160a01b03851615610af0576001600160a01b0385166000908152600360205260409020805460010190555b60008481526002602052604080822080546001600160a01b0319166001600160a01b0389811691821790925591518793918516917fddf252ad1be2c89b69c2b068fc378daa952ba7f163c4a11628f55a4df523b3ef91a4949350505050565b6000610b5e6000836000610a56565b90506001600160a01b0381166103e457604051637e27328960e01b81526004810183905260240161040e565b6103e482826040518060200160405280600081525061101c565b6000828152600660205260409020610bbc828261169a565b506040518281527ff8e1a15aba9398e019f0b49df1a4fde98ee17ae345cb5f6b5e2c27f5033e8ce79060200160405180910390a15050565b6007546001600160a01b0316331461068e5760405163118cdaa760e01b815233600482015260240161040e565b600780546001600160a01b038381166001600160a01b0319831681179093556040519116919082907f8be0079c531659141344cd1fd0a4f28419497f9722a3daafe3b4186f6b6457e090600090a35050565b6001600160a01b038216610ca557604051630b61174360e31b81526001600160a01b038316600482015260240161040e565b6001600160a01b03838116600081815260056020908152604080832094871680845294825291829020805460ff191686151590811790915591519182527f17307eab39ab6107e8899845ad3d59bd9653f200f220920489ca2b5937696c31910160405180910390a3505050565b6001600160a01b0383163b15610e3657604051630a85bd0160e11b81526001600160a01b0384169063150b7a0290610d5490889088908790879060040161182d565b6020604051808303816000875af1925050508015610d8f575060408051601f3d908101601f19168201909252610d8c9181019061186a565b60015b610df8573d808015610dbd576040519150601f19603f3d011682016040523d82523d6000602084013e610dc2565b606091505b508051600003610df057604051633250574960e11b81526001600160a01b038516600482015260240161040e565b805181602001fd5b6001600160e01b03198116630a85bd0160e11b14610e3457604051633250574960e11b81526001600160a01b038516600482015260240161040e565b505b5050505050565b6060610e4882610a10565b506000610e6060408051602081019091526000815290565b90506000815111610e805760405180602001604052806000815250610eab565b80610e8a84611034565b604051602001610e9b929190611788565b6040516020818303038152906040525b9392505050565b8080610ec657506001600160a01b03821615155b15610f88576000610ed684610a10565b90506001600160a01b03831615801590610f025750826001600160a01b0316816001600160a01b031614155b8015610f155750610f138184610957565b155b15610f3e5760405163a9fbf51f60e01b81526001600160a01b038416600482015260240161040e565b8115610f865783856001600160a01b0316826001600160a01b03167f8c5be1e5ebec7d5bd14f71427d1e84f3dd0314c0f7b2291e5b200ac8c7c3b92560405160405180910390a45b505b5050600090815260046020526040902080546001600160a01b0319166001600160a01b0392909216919091179055565b610fc38383836110c7565b610493576001600160a01b038316610ff157604051637e27328960e01b81526004810182905260240161040e565b60405163177e802f60e01b81526001600160a01b03831660048201526024810182905260440161040e565b611026838361112a565b610493336000858585610d12565b606060006110418361118f565b600101905060008167ffffffffffffffff81111561106157611061611398565b6040519080825280601f01601f19166020018201604052801561108b576020820181803683370190505b5090508181016020015b600019016f181899199a1a9b1b9c1cb0b131b232b360811b600a86061a8153600a850494508461109557509392505050565b60006001600160a01b038316158015906108d75750826001600160a01b0316846001600160a01b0316148061110157506111018484610957565b806108d75750506000908152600460205260409020546001600160a01b03908116911614919050565b6001600160a01b03821661115457604051633250574960e11b81526000600482015260240161040e565b600061116283836000610a56565b90506001600160a01b03811615610493576040516339e3563760e11b81526000600482015260240161040e565b60008072184f03e93ff9f4daa797ed6e38ed64bf6a1f0160401b83106111ce5772184f03e93ff9f4daa797ed6e38ed64bf6a1f0160401b830492506040015b6d04ee2d6d415b85acef810000000083106111fa576d04ee2d6d415b85acef8100000000830492506020015b662386f26fc10000831061121857662386f26fc10000830492506010015b6305f5e1008310611230576305f5e100830492506008015b612710831061124457612710830492506004015b60648310611256576064830492506002015b600a83106103185760010192915050565b6001600160e01b0319811681146104f357600080fd5b60006020828403121561128f57600080fd5b8135610eab81611267565b60005b838110156112b557818101518382015260200161129d565b50506000910152565b600081518084526112d681602086016020860161129a565b601f01601f19169290920160200192915050565b602081526000610eab60208301846112be565b60006020828403121561130f57600080fd5b5035919050565b80356001600160a01b038116811461132d57600080fd5b919050565b6000806040838503121561134557600080fd5b61134e83611316565b946020939093013593505050565b60008060006060848603121561137157600080fd5b61137a84611316565b925061138860208501611316565b9150604084013590509250925092565b634e487b7160e01b600052604160045260246000fd5b600067ffffffffffffffff808411156113c9576113c9611398565b604051601f8501601f19908116603f011681019082821181831017156113f1576113f1611398565b8160405280935085815286868601111561140a57600080fd5b858560208301376000602087830101525050509392505050565b600082601f83011261143557600080fd5b610eab838335602085016113ae565b60008060006060848603121561145957600080fd5b61146284611316565b9250602084013567ffffffffffffffff8082111561147f57600080fd5b61148b87838801611424565b935060408601359150808211156114a157600080fd5b506114ae86828701611424565b9150509250925092565b6000602082840312156114ca57600080fd5b610eab82611316565b600080604083850312156114e657600080fd5b6114ef83611316565b91506020830135801515811461150457600080fd5b809150509250929050565b6000806000806080858703121561152557600080fd5b61152e85611316565b935061153c60208601611316565b925060408501359150606085013567ffffffffffffffff81111561155f57600080fd5b8501601f8101871361157057600080fd5b61157f878235602084016113ae565b91505092959194509250565b60006020828403121561159d57600080fd5b813567ffffffffffffffff8111156115b457600080fd5b6108d784828501611424565b600080604083850312156115d357600080fd5b6115dc83611316565b91506115ea60208401611316565b90509250929050565b600181811c9082168061160757607f821691505b60208210810361162757634e487b7160e01b600052602260045260246000fd5b50919050565b60006001820161164d57634e487b7160e01b600052601160045260246000fd5b5060010190565b601f82111561049357600081815260208120601f850160051c8101602086101561167b5750805b601f850160051c820191505b81811015610e3457828155600101611687565b815167ffffffffffffffff8111156116b4576116b4611398565b6116c8816116c284546115f3565b84611654565b602080601f8311600181146116fd57600084156116e55750858301515b600019600386901b1c1916600185901b178555610e34565b600085815260208120601f198616915b8281101561172c5788860151825594840194600190910190840161170d565b508582101561174a5787850151600019600388901b60f8161c191681555b5050505050600190811b01905550565b60408152600061176d60408301856112be565b828103602084015261177f81856112be565b95945050505050565b6000835161179a81846020880161129a565b8351908301906117ae81836020880161129a565b01949350505050565b60008083546117c5816115f3565b600182811680156117dd57600181146117f257611821565b60ff1984168752821515830287019450611821565b8760005260208060002060005b858110156118185781548a8201529084019082016117ff565b50505082870194505b50929695505050505050565b6001600160a01b0385811682528416602082015260408101839052608060608201819052600090611860908301846112be565b9695505050505050565b60006020828403121561187c57600080fd5b8151610eab8161126756fea264697066735822122086fcce129f7ca0d4149f1fc397b751b9c880026ebd570f6484eb2f17420c121264736f6c63430008140033",
  "linkReferences": {},
  "deployedLinkReferences": {}
}